{
  "_format": "hh-sol-artifact-1",
  "contractName": "NFTMarketplace",
  "sourceName": "contracts/NFTMarketplace.sol",
  "abi": [
    {
      "inputs": [],
      "stateMutability": "nonpayable",
      "type": "constructor"
    },
    {
      "inputs": [
        {
          "internalType": "address",
          "name": "sender",
          "type": "address"
        },
        {
          "internalType": "uint256",
          "name": "tokenId",
          "type": "uint256"
        },
        {
          "internalType": "address",
          "name": "owner",
          "type": "address"
        }
      ],
      "name": "ERC721IncorrectOwner",
      "type": "error"
    },
    {
      "inputs": [
        {
          "internalType": "address",
          "name": "operator",
          "type": "address"
        },
        {
          "internalType": "uint256",
          "name": "tokenId",
          "type": "uint256"
        }
      ],
      "name": "ERC721InsufficientApproval",
      "type": "error"
    },
    {
      "inputs": [
        {
          "internalType": "address",
          "name": "approver",
          "type": "address"
        }
      ],
      "name": "ERC721InvalidApprover",
      "type": "error"
    },
    {
      "inputs": [
        {
          "internalType": "address",
          "name": "operator",
          "type": "address"
        }
      ],
      "name": "ERC721InvalidOperator",
      "type": "error"
    },
    {
      "inputs": [
        {
          "internalType": "address",
          "name": "owner",
          "type": "address"
        }
      ],
      "name": "ERC721InvalidOwner",
      "type": "error"
    },
    {
      "inputs": [
        {
          "internalType": "address",
          "name": "receiver",
          "type": "address"
        }
      ],
      "name": "ERC721InvalidReceiver",
      "type": "error"
    },
    {
      "inputs": [
        {
          "internalType": "address",
          "name": "sender",
          "type": "address"
        }
      ],
      "name": "ERC721InvalidSender",
      "type": "error"
    },
    {
      "inputs": [
        {
          "internalType": "uint256",
          "name": "tokenId",
          "type": "uint256"
        }
      ],
      "name": "ERC721NonexistentToken",
      "type": "error"
    },
    {
      "anonymous": false,
      "inputs": [
        {
          "indexed": true,
          "internalType": "address",
          "name": "owner",
          "type": "address"
        },
        {
          "indexed": true,
          "internalType": "address",
          "name": "approved",
          "type": "address"
        },
        {
          "indexed": true,
          "internalType": "uint256",
          "name": "tokenId",
          "type": "uint256"
        }
      ],
      "name": "Approval",
      "type": "event"
    },
    {
      "anonymous": false,
      "inputs": [
        {
          "indexed": true,
          "internalType": "address",
          "name": "owner",
          "type": "address"
        },
        {
          "indexed": true,
          "internalType": "address",
          "name": "operator",
          "type": "address"
        },
        {
          "indexed": false,
          "internalType": "bool",
          "name": "approved",
          "type": "bool"
        }
      ],
      "name": "ApprovalForAll",
      "type": "event"
    },
    {
      "anonymous": false,
      "inputs": [
        {
          "indexed": true,
          "internalType": "address",
          "name": "from",
          "type": "address"
        },
        {
          "indexed": true,
          "internalType": "address",
          "name": "to",
          "type": "address"
        },
        {
          "indexed": true,
          "internalType": "uint256",
          "name": "tokenId",
          "type": "uint256"
        }
      ],
      "name": "Transfer",
      "type": "event"
    },
    {
      "inputs": [
        {
          "internalType": "address",
          "name": "",
          "type": "address"
        },
        {
          "internalType": "string",
          "name": "",
          "type": "string"
        }
      ],
      "name": "addressToTokenURL",
      "outputs": [
        {
          "internalType": "bool",
          "name": "",
          "type": "bool"
        }
      ],
      "stateMutability": "view",
      "type": "function"
    },
    {
      "inputs": [
        {
          "internalType": "address",
          "name": "to",
          "type": "address"
        },
        {
          "internalType": "uint256",
          "name": "tokenId",
          "type": "uint256"
        }
      ],
      "name": "approve",
      "outputs": [],
      "stateMutability": "nonpayable",
      "type": "function"
    },
    {
      "inputs": [
        {
          "internalType": "address",
          "name": "owner",
          "type": "address"
        }
      ],
      "name": "balanceOf",
      "outputs": [
        {
          "internalType": "uint256",
          "name": "",
          "type": "uint256"
        }
      ],
      "stateMutability": "view",
      "type": "function"
    },
    {
      "inputs": [
        {
          "internalType": "uint256",
          "name": "_tokenId",
          "type": "uint256"
        }
      ],
      "name": "buyNFT",
      "outputs": [],
      "stateMutability": "payable",
      "type": "function"
    },
    {
      "inputs": [
        {
          "internalType": "uint256",
          "name": "tokenId",
          "type": "uint256"
        }
      ],
      "name": "getApproved",
      "outputs": [
        {
          "internalType": "address",
          "name": "",
          "type": "address"
        }
      ],
      "stateMutability": "view",
      "type": "function"
    },
    {
      "inputs": [],
      "name": "getAvailableNFTs",
      "outputs": [
        {
          "internalType": "uint256[]",
          "name": "",
          "type": "uint256[]"
        }
      ],
      "stateMutability": "view",
      "type": "function"
    },
    {
      "inputs": [
        {
          "internalType": "uint256",
          "name": "_tokenId",
          "type": "uint256"
        }
      ],
      "name": "getNFTAddress",
      "outputs": [
        {
          "internalType": "address",
          "name": "",
          "type": "address"
        }
      ],
      "stateMutability": "view",
      "type": "function"
    },
    {
      "inputs": [
        {
          "internalType": "uint256",
          "name": "_tokenId",
          "type": "uint256"
        }
      ],
      "name": "getTokenURL",
      "outputs": [
        {
          "internalType": "string",
          "name": "",
          "type": "string"
        }
      ],
      "stateMutability": "view",
      "type": "function"
    },
    {
      "inputs": [
        {
          "internalType": "address",
          "name": "owner",
          "type": "address"
        },
        {
          "internalType": "address",
          "name": "operator",
          "type": "address"
        }
      ],
      "name": "isApprovedForAll",
      "outputs": [
        {
          "internalType": "bool",
          "name": "",
          "type": "bool"
        }
      ],
      "stateMutability": "view",
      "type": "function"
    },
    {
      "inputs": [
        {
          "internalType": "address",
          "name": "_owner",
          "type": "address"
        },
        {
          "internalType": "uint256",
          "name": "_price",
          "type": "uint256"
        },
        {
          "internalType": "string",
          "name": "_tokenURL",
          "type": "string"
        }
      ],
      "name": "mintNFT",
      "outputs": [
        {
          "internalType": "uint256",
          "name": "",
          "type": "uint256"
        }
      ],
      "stateMutability": "nonpayable",
      "type": "function"
    },
    {
      "inputs": [],
      "name": "name",
      "outputs": [
        {
          "internalType": "string",
          "name": "",
          "type": "string"
        }
      ],
      "stateMutability": "view",
      "type": "function"
    },
    {
      "inputs": [
        {
          "internalType": "uint256",
          "name": "",
          "type": "uint256"
        }
      ],
      "name": "nfts",
      "outputs": [
        {
          "internalType": "address",
          "name": "owner",
          "type": "address"
        },
        {
          "internalType": "uint256",
          "name": "price",
          "type": "uint256"
        },
        {
          "internalType": "bool",
          "name": "isForSale",
          "type": "bool"
        },
        {
          "internalType": "string",
          "name": "tokenURL",
          "type": "string"
        }
      ],
      "stateMutability": "view",
      "type": "function"
    },
    {
      "inputs": [],
      "name": "owner",
      "outputs": [
        {
          "internalType": "address",
          "name": "",
          "type": "address"
        }
      ],
      "stateMutability": "view",
      "type": "function"
    },
    {
      "inputs": [
        {
          "internalType": "uint256",
          "name": "tokenId",
          "type": "uint256"
        }
      ],
      "name": "ownerOf",
      "outputs": [
        {
          "internalType": "address",
          "name": "",
          "type": "address"
        }
      ],
      "stateMutability": "view",
      "type": "function"
    },
    {
      "inputs": [
        {
          "internalType": "address",
          "name": "from",
          "type": "address"
        },
        {
          "internalType": "address",
          "name": "to",
          "type": "address"
        },
        {
          "internalType": "uint256",
          "name": "tokenId",
          "type": "uint256"
        }
      ],
      "name": "safeTransferFrom",
      "outputs": [],
      "stateMutability": "nonpayable",
      "type": "function"
    },
    {
      "inputs": [
        {
          "internalType": "address",
          "name": "from",
          "type": "address"
        },
        {
          "internalType": "address",
          "name": "to",
          "type": "address"
        },
        {
          "internalType": "uint256",
          "name": "tokenId",
          "type": "uint256"
        },
        {
          "internalType": "bytes",
          "name": "data",
          "type": "bytes"
        }
      ],
      "name": "safeTransferFrom",
      "outputs": [],
      "stateMutability": "nonpayable",
      "type": "function"
    },
    {
      "inputs": [
        {
          "internalType": "uint256",
          "name": "_tokenId",
          "type": "uint256"
        },
        {
          "internalType": "uint256",
          "name": "_price",
          "type": "uint256"
        }
      ],
      "name": "sellNFT",
      "outputs": [],
      "stateMutability": "nonpayable",
      "type": "function"
    },
    {
      "inputs": [
        {
          "internalType": "address",
          "name": "operator",
          "type": "address"
        },
        {
          "internalType": "bool",
          "name": "approved",
          "type": "bool"
        }
      ],
      "name": "setApprovalForAll",
      "outputs": [],
      "stateMutability": "nonpayable",
      "type": "function"
    },
    {
      "inputs": [
        {
          "internalType": "bytes4",
          "name": "interfaceId",
          "type": "bytes4"
        }
      ],
      "name": "supportsInterface",
      "outputs": [
        {
          "internalType": "bool",
          "name": "",
          "type": "bool"
        }
      ],
      "stateMutability": "view",
      "type": "function"
    },
    {
      "inputs": [],
      "name": "symbol",
      "outputs": [
        {
          "internalType": "string",
          "name": "",
          "type": "string"
        }
      ],
      "stateMutability": "view",
      "type": "function"
    },
    {
      "inputs": [],
      "name": "tokenId",
      "outputs": [
        {
          "internalType": "uint256",
          "name": "",
          "type": "uint256"
        }
      ],
      "stateMutability": "view",
      "type": "function"
    },
    {
      "inputs": [
        {
          "internalType": "uint256",
          "name": "tokenId",
          "type": "uint256"
        }
      ],
      "name": "tokenURI",
      "outputs": [
        {
          "internalType": "string",
          "name": "",
          "type": "string"
        }
      ],
      "stateMutability": "view",
      "type": "function"
    },
    {
      "inputs": [
        {
          "internalType": "address",
          "name": "from",
          "type": "address"
        },
        {
          "internalType": "address",
          "name": "to",
          "type": "address"
        },
        {
          "internalType": "uint256",
          "name": "tokenId",
          "type": "uint256"
        }
      ],
      "name": "transferFrom",
      "outputs": [],
      "stateMutability": "nonpayable",
      "type": "function"
    }
  ],
  "bytecode": "0x608060405260016007553480156200001657600080fd5b506040518060400160405280600f81526020017f4e4654204d61726b6574706c61636500000000000000000000000000000000008152506040518060400160405280600481526020017f4e46544d0000000000000000000000000000000000000000000000000000000081525081600090816200009491906200036a565b508060019081620000a691906200036a565b50505033600660006101000a81548173ffffffffffffffffffffffffffffffffffffffff021916908373ffffffffffffffffffffffffffffffffffffffff16021790555062000451565b600081519050919050565b7f4e487b7100000000000000000000000000000000000000000000000000000000600052604160045260246000fd5b7f4e487b7100000000000000000000000000000000000000000000000000000000600052602260045260246000fd5b600060028204905060018216806200017257607f821691505b6020821081036200018857620001876200012a565b5b50919050565b60008190508160005260206000209050919050565b60006020601f8301049050919050565b600082821b905092915050565b600060088302620001f27fffffffffffffffffffffffffffffffffffffffffffffffffffffffffffffffff82620001b3565b620001fe8683620001b3565b95508019841693508086168417925050509392505050565b6000819050919050565b6000819050919050565b60006200024b620002456200023f8462000216565b62000220565b62000216565b9050919050565b6000819050919050565b62000267836200022a565b6200027f620002768262000252565b848454620001c0565b825550505050565b600090565b6200029662000287565b620002a38184846200025c565b505050565b5b81811015620002cb57620002bf6000826200028c565b600181019050620002a9565b5050565b601f8211156200031a57620002e4816200018e565b620002ef84620001a3565b81016020851015620002ff578190505b620003176200030e85620001a3565b830182620002a8565b50505b505050565b600082821c905092915050565b60006200033f600019846008026200031f565b1980831691505092915050565b60006200035a83836200032c565b9150826002028217905092915050565b6200037582620000f0565b67ffffffffffffffff811115620003915762000390620000fb565b5b6200039d825462000159565b620003aa828285620002cf565b600060209050601f831160018114620003e25760008415620003cd578287015190505b620003d985826200034c565b86555062000449565b601f198416620003f2866200018e565b60005b828110156200041c57848901518255600182019150602085019450602081019050620003f5565b868310156200043c578489015162000438601f8916826200032c565b8355505b6001600288020188555050505b505050505050565b61356180620004616000396000f3fe6080604052600436106101405760003560e01c80636352211e116100b65780639d18f7731161006f5780639d18f7731461048a578063a10b998e146104c7578063a22cb46514610504578063b88d4fde1461052d578063c87b56dd14610556578063e985e9c51461059357610140565b80636352211e1461035457806370a08231146103915780638665e2ad146103ce5780638da5cb5b1461040b57806391a48a1e1461043657806395d89b411461045f57610140565b80631e576912116101085780631e5769121461023e57806323b872dd1461027b578063265aa621146102a457806332702c95146102e457806342842e0e1461030f57806351ed82881461033857610140565b806301ffc9a71461014557806306fdde0314610182578063081812fc146101ad578063095ea7b3146101ea57806317d70f7c14610213575b600080fd5b34801561015157600080fd5b5061016c6004803603810190610167919061242a565b6105d0565b6040516101799190612472565b60405180910390f35b34801561018e57600080fd5b506101976106b2565b6040516101a4919061251d565b60405180910390f35b3480156101b957600080fd5b506101d460048036038101906101cf9190612575565b610744565b6040516101e191906125e3565b60405180910390f35b3480156101f657600080fd5b50610211600480360381019061020c919061262a565b610760565b005b34801561021f57600080fd5b50610228610776565b6040516102359190612679565b60405180910390f35b34801561024a57600080fd5b50610265600480360381019061026091906126f9565b61077c565b6040516102729190612679565b60405180910390f35b34801561028757600080fd5b506102a2600480360381019061029d919061276d565b610a7b565b005b3480156102b057600080fd5b506102cb60048036038101906102c69190612575565b610b7d565b6040516102db94939291906127c0565b60405180910390f35b3480156102f057600080fd5b506102f9610c62565b60405161030691906128ca565b60405180910390f35b34801561031b57600080fd5b506103366004803603810190610331919061276d565b610da4565b005b610352600480360381019061034d9190612575565b610dc4565b005b34801561036057600080fd5b5061037b60048036038101906103769190612575565b610f95565b60405161038891906125e3565b60405180910390f35b34801561039d57600080fd5b506103b860048036038101906103b391906128ec565b610fa7565b6040516103c59190612679565b60405180910390f35b3480156103da57600080fd5b506103f560048036038101906103f09190612575565b611061565b604051610402919061251d565b60405180910390f35b34801561041757600080fd5b50610420611109565b60405161042d91906125e3565b60405180910390f35b34801561044257600080fd5b5061045d60048036038101906104589190612919565b61112f565b005b34801561046b57600080fd5b50610474611285565b604051610481919061251d565b60405180910390f35b34801561049657600080fd5b506104b160048036038101906104ac9190612575565b611317565b6040516104be91906125e3565b60405180910390f35b3480156104d357600080fd5b506104ee60048036038101906104e99190612a89565b611357565b6040516104fb9190612472565b60405180910390f35b34801561051057600080fd5b5061052b60048036038101906105269190612b11565b61139c565b005b34801561053957600080fd5b50610554600480360381019061054f9190612bf2565b6113b2565b005b34801561056257600080fd5b5061057d60048036038101906105789190612575565b6113d7565b60405161058a919061251d565b60405180910390f35b34801561059f57600080fd5b506105ba60048036038101906105b59190612c75565b611440565b6040516105c79190612472565b60405180910390f35b60007f80ac58cd000000000000000000000000000000000000000000000000000000007bffffffffffffffffffffffffffffffffffffffffffffffffffffffff1916827bffffffffffffffffffffffffffffffffffffffffffffffffffffffff1916148061069b57507f5b5e139f000000000000000000000000000000000000000000000000000000007bffffffffffffffffffffffffffffffffffffffffffffffffffffffff1916827bffffffffffffffffffffffffffffffffffffffffffffffffffffffff1916145b806106ab57506106aa826114d4565b5b9050919050565b6060600080546106c190612ce4565b80601f01602080910402602001604051908101604052809291908181526020018280546106ed90612ce4565b801561073a5780601f1061070f5761010080835404028352916020019161073a565b820191906000526020600020905b81548152906001019060200180831161071d57829003601f168201915b5050505050905090565b600061074f8261153e565b50610759826115c6565b9050919050565b610772828261076d611603565b61160b565b5050565b60075481565b6000600660009054906101000a900473ffffffffffffffffffffffffffffffffffffffff1673ffffffffffffffffffffffffffffffffffffffff163373ffffffffffffffffffffffffffffffffffffffff161461080e576040517f08c379a000000000000000000000000000000000000000000000000000000000815260040161080590612d61565b60405180910390fd5b600960008673ffffffffffffffffffffffffffffffffffffffff1673ffffffffffffffffffffffffffffffffffffffff168152602001908152602001600020838360405161085d929190612db1565b908152602001604051809103902060009054906101000a900460ff16156108b9576040517f08c379a00000000000000000000000000000000000000000000000000000000081526004016108b090612e3c565b60405180910390fd5b6000600760008154809291906108ce90612e8b565b9190505590506108de868261161d565b60405180608001604052808773ffffffffffffffffffffffffffffffffffffffff16815260200186815260200160001515815260200185858080601f016020809104026020016040519081016040528093929190818152602001838380828437600081840152601f19601f820116905080830192505050505050508152506008600083815260200190815260200160002060008201518160000160006101000a81548173ffffffffffffffffffffffffffffffffffffffff021916908373ffffffffffffffffffffffffffffffffffffffff1602179055506020820151816001015560408201518160020160006101000a81548160ff02191690831515021790555060608201518160030190816109f5919061307f565b509050506001600960008873ffffffffffffffffffffffffffffffffffffffff1673ffffffffffffffffffffffffffffffffffffffff1681526020019081526020016000208585604051610a4a929190612db1565b908152602001604051809103902060006101000a81548160ff02191690831515021790555080915050949350505050565b600073ffffffffffffffffffffffffffffffffffffffff168273ffffffffffffffffffffffffffffffffffffffff1603610aed5760006040517f64a0ae92000000000000000000000000000000000000000000000000000000008152600401610ae491906125e3565b60405180910390fd5b6000610b018383610afc611603565b61163b565b90508373ffffffffffffffffffffffffffffffffffffffff168173ffffffffffffffffffffffffffffffffffffffff1614610b77578382826040517f64283d7b000000000000000000000000000000000000000000000000000000008152600401610b6e93929190613151565b60405180910390fd5b50505050565b60086020528060005260406000206000915090508060000160009054906101000a900473ffffffffffffffffffffffffffffffffffffffff16908060010154908060020160009054906101000a900460ff1690806003018054610bdf90612ce4565b80601f0160208091040260200160405190810160405280929190818152602001828054610c0b90612ce4565b8015610c585780601f10610c2d57610100808354040283529160200191610c58565b820191906000526020600020905b815481529060010190602001808311610c3b57829003601f168201915b5050505050905084565b606060006001600754610c759190613188565b9050600080600190505b828111610cd1576008600082815260200190815260200160002060020160009054906101000a900460ff1615610cbe578180610cba90612e8b565b9250505b8080610cc990612e8b565b915050610c7f565b5060008167ffffffffffffffff811115610cee57610ced61295e565b5b604051908082528060200260200182016040528015610d1c5781602001602082028036833780820191505090505b509050600080600190505b848111610d99576008600082815260200190815260200160002060020160009054906101000a900460ff1615610d865780838381518110610d6b57610d6a6131bc565b5b6020026020010181815250508180610d8290612e8b565b9250505b8080610d9190612e8b565b915050610d27565b508194505050505090565b610dbf838383604051806020016040528060008152506113b2565b505050565b6008600082815260200190815260200160002060020160009054906101000a900460ff16610e27576040517f08c379a0000000000000000000000000000000000000000000000000000000008152600401610e1e90613237565b60405180910390fd5b6008600082815260200190815260200160002060010154341015610e80576040517f08c379a0000000000000000000000000000000000000000000000000000000008152600401610e77906132a3565b60405180910390fd5b60006008600083815260200190815260200160002060000160009054906101000a900473ffffffffffffffffffffffffffffffffffffffff169050610ec6813384611855565b60006008600084815260200190815260200160002060020160006101000a81548160ff021916908315150217905550336008600084815260200190815260200160002060000160006101000a81548173ffffffffffffffffffffffffffffffffffffffff021916908373ffffffffffffffffffffffffffffffffffffffff1602179055508073ffffffffffffffffffffffffffffffffffffffff166108fc349081150290604051600060405180830381858888f19350505050158015610f90573d6000803e3d6000fd5b505050565b6000610fa08261153e565b9050919050565b60008073ffffffffffffffffffffffffffffffffffffffff168273ffffffffffffffffffffffffffffffffffffffff160361101a5760006040517f89c62b6400000000000000000000000000000000000000000000000000000000815260040161101191906125e3565b60405180910390fd5b600360008373ffffffffffffffffffffffffffffffffffffffff1673ffffffffffffffffffffffffffffffffffffffff168152602001908152602001600020549050919050565b606060086000838152602001908152602001600020600301805461108490612ce4565b80601f01602080910402602001604051908101604052809291908181526020018280546110b090612ce4565b80156110fd5780601f106110d2576101008083540402835291602001916110fd565b820191906000526020600020905b8154815290600101906020018083116110e057829003601f168201915b50505050509050919050565b600660009054906101000a900473ffffffffffffffffffffffffffffffffffffffff1681565b6008600083815260200190815260200160002060000160009054906101000a900473ffffffffffffffffffffffffffffffffffffffff1673ffffffffffffffffffffffffffffffffffffffff163373ffffffffffffffffffffffffffffffffffffffff16146111d3576040517f08c379a00000000000000000000000000000000000000000000000000000000081526004016111ca9061330f565b60405180910390fd5b6008600083815260200190815260200160002060020160009054906101000a900460ff1615611237576040517f08c379a000000000000000000000000000000000000000000000000000000000815260040161122e9061337b565b60405180910390fd5b80600860008481526020019081526020016000206001018190555060016008600084815260200190815260200160002060020160006101000a81548160ff0219169083151502179055505050565b60606001805461129490612ce4565b80601f01602080910402602001604051908101604052809291908181526020018280546112c090612ce4565b801561130d5780601f106112e25761010080835404028352916020019161130d565b820191906000526020600020905b8154815290600101906020018083116112f057829003601f168201915b5050505050905090565b60006008600083815260200190815260200160002060000160009054906101000a900473ffffffffffffffffffffffffffffffffffffffff169050919050565b6009602052816000526040600020818051602081018201805184825260208301602085012081835280955050505050506000915091509054906101000a900460ff1681565b6113ae6113a7611603565b83836119c2565b5050565b6113bd848484610a7b565b6113d16113c8611603565b85858585611b31565b50505050565b60606113e28261153e565b5060006113ed611ce2565b9050600081511161140d5760405180602001604052806000815250611438565b8061141784611cf9565b6040516020016114289291906133cc565b6040516020818303038152906040525b915050919050565b6000600560008473ffffffffffffffffffffffffffffffffffffffff1673ffffffffffffffffffffffffffffffffffffffff16815260200190815260200160002060008373ffffffffffffffffffffffffffffffffffffffff1673ffffffffffffffffffffffffffffffffffffffff16815260200190815260200160002060009054906101000a900460ff16905092915050565b60007f01ffc9a7000000000000000000000000000000000000000000000000000000007bffffffffffffffffffffffffffffffffffffffffffffffffffffffff1916827bffffffffffffffffffffffffffffffffffffffffffffffffffffffff1916149050919050565b60008061154a83611dc7565b9050600073ffffffffffffffffffffffffffffffffffffffff168173ffffffffffffffffffffffffffffffffffffffff16036115bd57826040517f7e2732890000000000000000000000000000000000000000000000000000000081526004016115b49190612679565b60405180910390fd5b80915050919050565b60006004600083815260200190815260200160002060009054906101000a900473ffffffffffffffffffffffffffffffffffffffff169050919050565b600033905090565b6116188383836001611e04565b505050565b611637828260405180602001604052806000815250611fc9565b5050565b60008061164784611dc7565b9050600073ffffffffffffffffffffffffffffffffffffffff168373ffffffffffffffffffffffffffffffffffffffff161461168957611688818486611fed565b5b600073ffffffffffffffffffffffffffffffffffffffff168173ffffffffffffffffffffffffffffffffffffffff161461171a576116cb600085600080611e04565b6001600360008373ffffffffffffffffffffffffffffffffffffffff1673ffffffffffffffffffffffffffffffffffffffff168152602001908152602001600020600082825403925050819055505b600073ffffffffffffffffffffffffffffffffffffffff168573ffffffffffffffffffffffffffffffffffffffff161461179d576001600360008773ffffffffffffffffffffffffffffffffffffffff1673ffffffffffffffffffffffffffffffffffffffff168152602001908152602001600020600082825401925050819055505b846002600086815260200190815260200160002060006101000a81548173ffffffffffffffffffffffffffffffffffffffff021916908373ffffffffffffffffffffffffffffffffffffffff160217905550838573ffffffffffffffffffffffffffffffffffffffff168273ffffffffffffffffffffffffffffffffffffffff167fddf252ad1be2c89b69c2b068fc378daa952ba7f163c4a11628f55a4df523b3ef60405160405180910390a4809150509392505050565b600073ffffffffffffffffffffffffffffffffffffffff168273ffffffffffffffffffffffffffffffffffffffff16036118c75760006040517f64a0ae920000000000000000000000000000000000000000000000000000000081526004016118be91906125e3565b60405180910390fd5b60006118d58383600061163b565b9050600073ffffffffffffffffffffffffffffffffffffffff168173ffffffffffffffffffffffffffffffffffffffff160361194857816040517f7e27328900000000000000000000000000000000000000000000000000000000815260040161193f9190612679565b60405180910390fd5b8373ffffffffffffffffffffffffffffffffffffffff168173ffffffffffffffffffffffffffffffffffffffff16146119bc578382826040517f64283d7b0000000000000000000000000000000000000000000000000000000081526004016119b393929190613151565b60405180910390fd5b50505050565b600073ffffffffffffffffffffffffffffffffffffffff168273ffffffffffffffffffffffffffffffffffffffff1603611a3357816040517f5b08ba18000000000000000000000000000000000000000000000000000000008152600401611a2a91906125e3565b60405180910390fd5b80600560008573ffffffffffffffffffffffffffffffffffffffff1673ffffffffffffffffffffffffffffffffffffffff16815260200190815260200160002060008473ffffffffffffffffffffffffffffffffffffffff1673ffffffffffffffffffffffffffffffffffffffff16815260200190815260200160002060006101000a81548160ff0219169083151502179055508173ffffffffffffffffffffffffffffffffffffffff168373ffffffffffffffffffffffffffffffffffffffff167f17307eab39ab6107e8899845ad3d59bd9653f200f220920489ca2b5937696c3183604051611b249190612472565b60405180910390a3505050565b60008373ffffffffffffffffffffffffffffffffffffffff163b1115611cdb578273ffffffffffffffffffffffffffffffffffffffff1663150b7a02868685856040518563ffffffff1660e01b8152600401611b909493929190613445565b6020604051808303816000875af1925050508015611bcc57506040513d601f19601f82011682018060405250810190611bc991906134a6565b60015b611c50573d8060008114611bfc576040519150601f19603f3d011682016040523d82523d6000602084013e611c01565b606091505b506000815103611c4857836040517f64a0ae92000000000000000000000000000000000000000000000000000000008152600401611c3f91906125e3565b60405180910390fd5b805181602001fd5b63150b7a0260e01b7bffffffffffffffffffffffffffffffffffffffffffffffffffffffff1916817bffffffffffffffffffffffffffffffffffffffffffffffffffffffff191614611cd957836040517f64a0ae92000000000000000000000000000000000000000000000000000000008152600401611cd091906125e3565b60405180910390fd5b505b5050505050565b606060405180602001604052806000815250905090565b606060006001611d08846120b1565b01905060008167ffffffffffffffff811115611d2757611d2661295e565b5b6040519080825280601f01601f191660200182016040528015611d595781602001600182028036833780820191505090505b509050600082602001820190505b600115611dbc578080600190039150507f3031323334353637383961626364656600000000000000000000000000000000600a86061a8153600a8581611db057611daf6134d3565b5b04945060008503611d67575b819350505050919050565b60006002600083815260200190815260200160002060009054906101000a900473ffffffffffffffffffffffffffffffffffffffff169050919050565b8080611e3d5750600073ffffffffffffffffffffffffffffffffffffffff168273ffffffffffffffffffffffffffffffffffffffff1614155b15611f71576000611e4d8461153e565b9050600073ffffffffffffffffffffffffffffffffffffffff168373ffffffffffffffffffffffffffffffffffffffff1614158015611eb857508273ffffffffffffffffffffffffffffffffffffffff168173ffffffffffffffffffffffffffffffffffffffff1614155b8015611ecb5750611ec98184611440565b155b15611f0d57826040517fa9fbf51f000000000000000000000000000000000000000000000000000000008152600401611f0491906125e3565b60405180910390fd5b8115611f6f57838573ffffffffffffffffffffffffffffffffffffffff168273ffffffffffffffffffffffffffffffffffffffff167f8c5be1e5ebec7d5bd14f71427d1e84f3dd0314c0f7b2291e5b200ac8c7c3b92560405160405180910390a45b505b836004600085815260200190815260200160002060006101000a81548173ffffffffffffffffffffffffffffffffffffffff021916908373ffffffffffffffffffffffffffffffffffffffff16021790555050505050565b611fd38383612204565b611fe8611fde611603565b6000858585611b31565b505050565b611ff88383836122fd565b6120ac57600073ffffffffffffffffffffffffffffffffffffffff168373ffffffffffffffffffffffffffffffffffffffff160361206d57806040517f7e2732890000000000000000000000000000000000000000000000000000000081526004016120649190612679565b60405180910390fd5b81816040517f177e802f0000000000000000000000000000000000000000000000000000000081526004016120a3929190613502565b60405180910390fd5b505050565b600080600090507a184f03e93ff9f4daa797ed6e38ed64bf6a1f010000000000000000831061210f577a184f03e93ff9f4daa797ed6e38ed64bf6a1f0100000000000000008381612105576121046134d3565b5b0492506040810190505b6d04ee2d6d415b85acef8100000000831061214c576d04ee2d6d415b85acef81000000008381612142576121416134d3565b5b0492506020810190505b662386f26fc10000831061217b57662386f26fc100008381612171576121706134d3565b5b0492506010810190505b6305f5e10083106121a4576305f5e100838161219a576121996134d3565b5b0492506008810190505b61271083106121c95761271083816121bf576121be6134d3565b5b0492506004810190505b606483106121ec57606483816121e2576121e16134d3565b5b0492506002810190505b600a83106121fb576001810190505b80915050919050565b600073ffffffffffffffffffffffffffffffffffffffff168273ffffffffffffffffffffffffffffffffffffffff16036122765760006040517f64a0ae9200000000000000000000000000000000000000000000000000000000815260040161226d91906125e3565b60405180910390fd5b60006122848383600061163b565b9050600073ffffffffffffffffffffffffffffffffffffffff168173ffffffffffffffffffffffffffffffffffffffff16146122f85760006040517f73c6ac6e0000000000000000000000000000000000000000000000000000000081526004016122ef91906125e3565b60405180910390fd5b505050565b60008073ffffffffffffffffffffffffffffffffffffffff168373ffffffffffffffffffffffffffffffffffffffff16141580156123b557508273ffffffffffffffffffffffffffffffffffffffff168473ffffffffffffffffffffffffffffffffffffffff16148061237657506123758484611440565b5b806123b457508273ffffffffffffffffffffffffffffffffffffffff1661239c836115c6565b73ffffffffffffffffffffffffffffffffffffffff16145b5b90509392505050565b6000604051905090565b600080fd5b600080fd5b60007fffffffff0000000000000000000000000000000000000000000000000000000082169050919050565b612407816123d2565b811461241257600080fd5b50565b600081359050612424816123fe565b92915050565b6000602082840312156124405761243f6123c8565b5b600061244e84828501612415565b91505092915050565b60008115159050919050565b61246c81612457565b82525050565b60006020820190506124876000830184612463565b92915050565b600081519050919050565b600082825260208201905092915050565b60005b838110156124c75780820151818401526020810190506124ac565b60008484015250505050565b6000601f19601f8301169050919050565b60006124ef8261248d565b6124f98185612498565b93506125098185602086016124a9565b612512816124d3565b840191505092915050565b6000602082019050818103600083015261253781846124e4565b905092915050565b6000819050919050565b6125528161253f565b811461255d57600080fd5b50565b60008135905061256f81612549565b92915050565b60006020828403121561258b5761258a6123c8565b5b600061259984828501612560565b91505092915050565b600073ffffffffffffffffffffffffffffffffffffffff82169050919050565b60006125cd826125a2565b9050919050565b6125dd816125c2565b82525050565b60006020820190506125f860008301846125d4565b92915050565b612607816125c2565b811461261257600080fd5b50565b600081359050612624816125fe565b92915050565b60008060408385031215612641576126406123c8565b5b600061264f85828601612615565b925050602061266085828601612560565b9150509250929050565b6126738161253f565b82525050565b600060208201905061268e600083018461266a565b92915050565b600080fd5b600080fd5b600080fd5b60008083601f8401126126b9576126b8612694565b5b8235905067ffffffffffffffff8111156126d6576126d5612699565b5b6020830191508360018202830111156126f2576126f161269e565b5b9250929050565b60008060008060608587031215612713576127126123c8565b5b600061272187828801612615565b945050602061273287828801612560565b935050604085013567ffffffffffffffff811115612753576127526123cd565b5b61275f878288016126a3565b925092505092959194509250565b600080600060608486031215612786576127856123c8565b5b600061279486828701612615565b93505060206127a586828701612615565b92505060406127b686828701612560565b9150509250925092565b60006080820190506127d560008301876125d4565b6127e2602083018661266a565b6127ef6040830185612463565b818103606083015261280181846124e4565b905095945050505050565b600081519050919050565b600082825260208201905092915050565b6000819050602082019050919050565b6128418161253f565b82525050565b60006128538383612838565b60208301905092915050565b6000602082019050919050565b60006128778261280c565b6128818185612817565b935061288c83612828565b8060005b838110156128bd5781516128a48882612847565b97506128af8361285f565b925050600181019050612890565b5085935050505092915050565b600060208201905081810360008301526128e4818461286c565b905092915050565b600060208284031215612902576129016123c8565b5b600061291084828501612615565b91505092915050565b600080604083850312156129305761292f6123c8565b5b600061293e85828601612560565b925050602061294f85828601612560565b9150509250929050565b600080fd5b7f4e487b7100000000000000000000000000000000000000000000000000000000600052604160045260246000fd5b612996826124d3565b810181811067ffffffffffffffff821117156129b5576129b461295e565b5b80604052505050565b60006129c86123be565b90506129d4828261298d565b919050565b600067ffffffffffffffff8211156129f4576129f361295e565b5b6129fd826124d3565b9050602081019050919050565b82818337600083830152505050565b6000612a2c612a27846129d9565b6129be565b905082815260208101848484011115612a4857612a47612959565b5b612a53848285612a0a565b509392505050565b600082601f830112612a7057612a6f612694565b5b8135612a80848260208601612a19565b91505092915050565b60008060408385031215612aa057612a9f6123c8565b5b6000612aae85828601612615565b925050602083013567ffffffffffffffff811115612acf57612ace6123cd565b5b612adb85828601612a5b565b9150509250929050565b612aee81612457565b8114612af957600080fd5b50565b600081359050612b0b81612ae5565b92915050565b60008060408385031215612b2857612b276123c8565b5b6000612b3685828601612615565b9250506020612b4785828601612afc565b9150509250929050565b600067ffffffffffffffff821115612b6c57612b6b61295e565b5b612b75826124d3565b9050602081019050919050565b6000612b95612b9084612b51565b6129be565b905082815260208101848484011115612bb157612bb0612959565b5b612bbc848285612a0a565b509392505050565b600082601f830112612bd957612bd8612694565b5b8135612be9848260208601612b82565b91505092915050565b60008060008060808587031215612c0c57612c0b6123c8565b5b6000612c1a87828801612615565b9450506020612c2b87828801612615565b9350506040612c3c87828801612560565b925050606085013567ffffffffffffffff811115612c5d57612c5c6123cd565b5b612c6987828801612bc4565b91505092959194509250565b60008060408385031215612c8c57612c8b6123c8565b5b6000612c9a85828601612615565b9250506020612cab85828601612615565b9150509250929050565b7f4e487b7100000000000000000000000000000000000000000000000000000000600052602260045260246000fd5b60006002820490506001821680612cfc57607f821691505b602082108103612d0f57612d0e612cb5565b5b50919050565b7f4f6e6c79206f776e65722063616e206d696e74204e4654000000000000000000600082015250565b6000612d4b601783612498565b9150612d5682612d15565b602082019050919050565b60006020820190508181036000830152612d7a81612d3e565b9050919050565b600081905092915050565b6000612d988385612d81565b9350612da5838584612a0a565b82840190509392505050565b6000612dbe828486612d8c565b91508190509392505050565b7f5468697320616464726573732068617320616c7265616479206d696e7465642060008201527f74686973204e4654000000000000000000000000000000000000000000000000602082015250565b6000612e26602883612498565b9150612e3182612dca565b604082019050919050565b60006020820190508181036000830152612e5581612e19565b9050919050565b7f4e487b7100000000000000000000000000000000000000000000000000000000600052601160045260246000fd5b6000612e968261253f565b91507fffffffffffffffffffffffffffffffffffffffffffffffffffffffffffffffff8203612ec857612ec7612e5c565b5b600182019050919050565b60008190508160005260206000209050919050565b60006020601f8301049050919050565b600082821b905092915050565b600060088302612f357fffffffffffffffffffffffffffffffffffffffffffffffffffffffffffffffff82612ef8565b612f3f8683612ef8565b95508019841693508086168417925050509392505050565b6000819050919050565b6000612f7c612f77612f728461253f565b612f57565b61253f565b9050919050565b6000819050919050565b612f9683612f61565b612faa612fa282612f83565b848454612f05565b825550505050565b600090565b612fbf612fb2565b612fca818484612f8d565b505050565b5b81811015612fee57612fe3600082612fb7565b600181019050612fd0565b5050565b601f8211156130335761300481612ed3565b61300d84612ee8565b8101602085101561301c578190505b61303061302885612ee8565b830182612fcf565b50505b505050565b600082821c905092915050565b600061305660001984600802613038565b1980831691505092915050565b600061306f8383613045565b9150826002028217905092915050565b6130888261248d565b67ffffffffffffffff8111156130a1576130a061295e565b5b6130ab8254612ce4565b6130b6828285612ff2565b600060209050601f8311600181146130e957600084156130d7578287015190505b6130e18582613063565b865550613149565b601f1984166130f786612ed3565b60005b8281101561311f578489015182556001820191506020850194506020810190506130fa565b8683101561313c5784890151613138601f891682613045565b8355505b6001600288020188555050505b505050505050565b600060608201905061316660008301866125d4565b613173602083018561266a565b61318060408301846125d4565b949350505050565b60006131938261253f565b915061319e8361253f565b92508282039050818111156131b6576131b5612e5c565b5b92915050565b7f4e487b7100000000000000000000000000000000000000000000000000000000600052603260045260246000fd5b7f4e4654206973206e6f7420666f722073616c6500000000000000000000000000600082015250565b6000613221601383612498565b915061322c826131eb565b602082019050919050565b6000602082019050818103600083015261325081613214565b9050919050565b7f4e6f7420656e6f75676820457468657220746f20627579204e46540000000000600082015250565b600061328d601b83612498565b915061329882613257565b602082019050919050565b600060208201905081810360008301526132bc81613280565b9050919050565b7f4f6e6c79206f776e65722063616e2073656c6c204e4654000000000000000000600082015250565b60006132f9601783612498565b9150613304826132c3565b602082019050919050565b60006020820190508181036000830152613328816132ec565b9050919050565b7f4e465420697320616c726561647920666f722073616c65000000000000000000600082015250565b6000613365601783612498565b91506133708261332f565b602082019050919050565b6000602082019050818103600083015261339481613358565b9050919050565b60006133a68261248d565b6133b08185612d81565b93506133c08185602086016124a9565b80840191505092915050565b60006133d8828561339b565b91506133e4828461339b565b91508190509392505050565b600081519050919050565b600082825260208201905092915050565b6000613417826133f0565b61342181856133fb565b93506134318185602086016124a9565b61343a816124d3565b840191505092915050565b600060808201905061345a60008301876125d4565b61346760208301866125d4565b613474604083018561266a565b8181036060830152613486818461340c565b905095945050505050565b6000815190506134a0816123fe565b92915050565b6000602082840312156134bc576134bb6123c8565b5b60006134ca84828501613491565b91505092915050565b7f4e487b7100000000000000000000000000000000000000000000000000000000600052601260045260246000fd5b600060408201905061351760008301856125d4565b613524602083018461266a565b939250505056fea2646970667358221220057200c87a7bd93d136b7e08b7eb15aa9f2274f840a78959b8bc62ea9df1545864736f6c63430008140033",
  "linkReferences": {},
  "deployedLinkReferences": {}
}